:020000040000FA
:040000003CEF00F0E1
:06000800738223ED1FF0DE
:100018007380D8CF07F0E8CF08F0E0CF09F0D9CF48
:100028000AF0DACF0BF09EAA1CEF00F01EEF00F0EA
:1000380030EF00F0ABA223EF00F025EF00F02AEF3D
:1000480000F0AB9800F0AB882AEF00F052EC1EF0FD
:1000580030EF00F030EF00F00BC0DAFF0AC0D9FF34
:1000680009C0E0FF08C0E8FF07C0D8FF7390100080
:04007800F5EF1EF092
:100600000048656C6C6F20776F726C64212020004D
:10061000252E3266202000494E46004E414E00698C
:0B0620006E66006E616E006C660000EC
:10062C00000E00019B6F000E9A6F41C0ACF042C0EF
:10063C00ADF043C0AEF044C0AFF0AFBF2AEF03F053
:10064C0028EF03F042EF03F0000E9B6F010E9A6F40
:10065C00ACC00CF0ADC00DF0AEC00EF0AFC00FF0E2
:10066C0099EC1EF00CC0ACF00DC0ADF00EC0AEF0AD
:10067C000FC0AFF042EF03F0000E0001B36F000E9D
:10068C00B26F6BC09FF06CC0A0F09A519B11D8A4B4
:10069C0052EF03F054EF03F05DEF03F06FA459EF4A
:1006AC0003F05BEF03F081EF03F05DEF03F09A5181
:1006BC009B11D8A464EF03F066EF03F06CEF03F02A
:1006CC00000E856F2B0E846F72EF03F0000E856F9A
:1006DC002D0E846F72EF03F0000EB225D96E010E51
:1006EC00B321DA6E84C0DFFFB24BB32B9F07D8A0C7
:1006FC00A00781EF03F0ACC00CF0ADC00DF0AEC0A4
:10070C000EF0AFC00FF0DDEC18F00C040D10D8A4F7
:10071C0092EF03F094EF03F0FEEF03F0BF0E466E82
:10072C00FF0E476E4550486E496A46504826475062
:10073C00492249500AE11A0E485CD8A0A8EF03F0F0
:10074C00ABEF03F0010EACEF03F0000E0001866F6F
:10075C00876BBCEF03F045C00CF00D6AB9EC1EF0D2
:10076C000CC086F00DC087F0BCEF03F00001865181
:10077C008711D8B4C4EF03F0C6EF03F0D4EF03F045
:10078C00000EB2250E6E010EB3210F6E170E106EF9
:10079C00060E116E1DEC1DF0E3EF03F0000E0001D0
:1007AC00B2250E6E010EB3210F6E1F0E106E060ECB
:1007BC00116E1DEC1DF0E3EF03F00001FD0E9F2701
:1007CC00FF0EA0233FC01CF040C01DF0000E1E6E9B
:1007DC00010E1F6E9FC020F0A0C021F09FEC1BF0FB
:1007EC001CC03FF01DC040F0A7EF09F0A7EF09F0C7
:1007FC00ACC00CF0ADC00DF0AEC00EF0AFC00FF041
:10080C00DDEC18F00C500D10D8A40FEF04F011EF24
:10081C0004F07BEF04F0BF0E466EFF0E476E4550A2
:10082C00486E496A465048264750492249500AE1C9
:10083C001A0E485CD8A025EF04F028EF04F0010E46
:10084C0029EF04F0000E0001886F896B39EF04F07A
:10085C0045C00CF00D6AB9EC1EF00CC088F00DC050
:10086C0089F039EF04F0000188518911D8B441EFB7
:10087C0004F043EF04F051EF04F0000EB2250E6EBD
:10088C00010EB3210F6E1B0E106E060E116E1DECB9
:10089C001DF060EF04F0000E0001B2250E6E010E8B
:1008AC00B3210F6E230E106E060E116E1DEC1DF093
:1008BC0060EF04F00001FD0E9F27FF0EA0233FC048
:1008CC001CF040C01DF0000E1E6E010E1F6E9FC06E
:1008DC0020F0A0C021F09FEC1BF01CC03FF01DC00D
:1008EC0040F0A7EF09F0A7EF09F0000E0001B46F7C
:1008FC00000EB56F800EB66F3F0EB76F000EB16F66
:10090C00000EB06FACC00CF0ADC00DF0AEC00EF070
:10091C00AFC00FF0000E106E000E116E000E126EB6
:10092C00000E136E08EC1CF0D8B09FEF04F0A1EF92
:10093C0004F030EF05F0C4EF04F0C4EF04F0B4C0E1
:10094C001AF0B5C01BF0B6C01CF0B7C01DF0000EFD
:10095C001E6E000E1F6E200E206E410E216EF1ECED
:10096C000EF01AC0B4F01BC0B5F01CC0B6F01DC020
:10097C00B7F00001B04BB12BC4EF04F0ACC033F0B6
:10098C00ADC034F0AEC035F0AFC036F0000E1E6E08
:10099C00000E1F6E200E206E410E216EB4C01AF098
:1009AC00B5C01BF0B6C01CF0B7C01DF0F1EC0EF0DA
:1009BC001AC037F01BC038F01CC039F01DC03AF01B
:1009CC0046EC16F0D8B0EDEF04F0EFEF04F0A5EF25
:1009DC0004F013EF05F013EF05F0B4C00CF0B5C044
:1009EC000DF0B6C00EF0B7C00FF0000E106E000E7A
:1009FC00116E200E126E410E136E28EC11F00CC00D
:100A0C00B4F00DC0B5F00EC0B6F00FC0B7F00001D9
:100A1C00B007D8A0B10713EF05F0ACC033F0ADC0F0
:100A2C0034F0AEC035F0AFC036F0B4C037F0B5C05E
:100A3C0038F0B6C039F0B7C03AF046EC16F0D8A092
:100A4C002AEF05F02CEF05F0F3EF04F030EF05F092
:100A5C0030EF05F045C012F0136AA8EC1CF01250F0
:100A6C000001A16FA1C09EF0670EA119D8A441EF9F
:100A7C0005F043EF05F06DEF05F06D506E10D8A446
:100A8C004AEF05F04CEF05F052EF05F0000E6E6EDC
:100A9C00010E6D6E52EF05F06EBE5FEF05F06E50FD
:100AAC0006E16D04D8B05DEF05F05FEF05F065EF82
:100ABC0005F0000E9D6F060E9C6F82EF05F06DC069
:100ACC009CF06EC09DF082EF05F082EF05F06EBEDB
:100ADC0072EF05F074EF05F07AEF05F06DC09CF045
:100AEC006EC09DF082EF05F0000E9D6F060E9C6FA0
:100AFC0082EF05F082EF05F0670EA119D8A489EFFB
:100B0C0005F08BEF05F0BEEF05F0B1AF99EF05F0F6
:100B1C00FC0EB05DFF0EB159D8A097EF05F099EF20
:100B2C0005F0B8EF05F0FF0E466EFF0E476E9CC049
:100B3C0048F09DC049F04650482647504922B051D4
:100B4C00485C4950800A4A6EB151800A4A58D8A074
:100B5C00B2EF05F0B4EF05F0B8EF05F0660E9E6F3E
:100B6C00BEEF05F0650E9E6FBEEF05F0BEEF05F013
:100B7C009CC094F09DC095F0670EA119D8A4C9EF44
:100B8C0005F0CBEF05F0DDEF05F0660E9E19D8A44D
:100B9C00D2EF05F0D4EF05F0E1EF05F0B1BFDBEFDC
:100BAC0005F0D9EF05F0E1EF05F0DDEF05F0944B22
:100BBC00952BE1EF05F0660E9E19D8A4E8EF05F031
:100BCC00EAEF05F010EF06F0B1BFF1EF05F0EFEF33
:100BDC0005F0FFEF05F0000EB46F000EB56F800E40
:100BEC00B66F3F0EB76F000EB16F000EB06FFFEF18
:100BFC0005F0670EA119D8B406EF06F008EF06F061
:100C0C0010EF06F0B0519427B151952310EF06F078
:100C1C0010EF06F0000EAB6F000EAA6FACC0A2F086
:100C2C00ADC0A3F0AEC0A4F0AFC0A5F0B4C080F0CE
:100C3C00B5C081F0B6C082F0B7C083F0A3EF06F068
:100C4C00A2C00CF0A3C00DF0A4C00EF0A5C00FF014
:100C5C00B4C010F0B5C011F0B6C012F0B7C013F0AC
:100C6C0028EC11F00CC025F00DC026F00EC027F0BA
:100C7C000FC028F038EC13F025C0A6F026C0A7F062
:100C8C0027C0A8F028C0A9F0A6C00CF0A7C00DF092
:100C9C00A8C00EF0A9C00FF0AAEC17F00CC098F089
:100CAC000DC099F0A2C033F0A3C034F0A4C035F04D
:100CBC00A5C036F0B4C01EF0B5C01FF0B6C020F011
:100CCC00B7C021F0A6C01AF0A7C01BF0A8C01CF03A
:100CDC00A9C01DF0F1EC0EF01AC037F01BC038F0B3
:100CEC001CC039F01DC03AF02DEC1EF033C0A2F040
:100CFC0034C0A3F035C0A4F036C0A5F0B4C00CF0DD
:100D0C00B5C00DF0B6C00EF0B7C00FF0000E106EEF
:100D1C00000E116E200E126E410E136E28EC11F0A7
:100D2C000CC0B4F00DC0B5F00EC0B6F00FC0B7F0EB
:100D3C000001AA4BAB2BA3EF06F09451AA5DAB516B
:100D4C00800A466E9551800A4658D8A0B0EF06F03E
:100D5C00B2EF06F026EF06F0B4EF06F0B4C01AF0CE
:100D6C00B5C01BF0B6C01CF0B7C01DF0000E1E6E57
:100D7C00000E1F6EA00E206E400E216EF1EC0EF0D8
:100D8C001AC0A6F01BC0A7F01CC0A8F01DC0A9F08B
:100D9C00A2C033F0A3C034F0A4C035F0A5C036F027
:100DAC00A6C037F0A7C038F0A8C039F0A9C03AF0F7
:100DBC0046EC16F0D8B0E5EF06F0E7EF06F0F2EFF0
:100DCC0006F0000E0001A66F000EA76F000EA86FB4
:100DDC00000EA96F1FEF07F0A2C00CF0A3C00DF01E
:100DEC00A4C00EF0A5C00FF0A6C010F0A7C011F063
:100DFC00A8C012F0A9C013F008EC1CF0D8A009EFA1
:100E0C0007F00BEF07F01FEF07F0000198B111EF9F
:100E1C0007F013EF07F01FEF07F0000EA66F000EA0
:100E2C00A76F000EA86F000EA96F1FEF07F01FEF42
:100E3C0007F0ACC00CF0ADC00DF0AEC00EF0AFC002
:100E4C000FF0A6C010F0A7C011F0A8C012F0A9C0F6
:100E5C0013F0A8EC09F00CC0A2F00DC0A3F00EC06A
:100E6C00A4F00FC0A5F080C0B4F081C0B5F082C072
:100E7C00B6F083C0B7F0650E00019E19D8B449EFE7
:100E8C0007F04BEF07F051EF07F0B0C096F0B1C090
:100E9C0097F055EF07F0000E976F000E966F000E4F
:100EAC00936F000E926F000E916F000E906F000EFC
:100EBC00AB6F000EAA6F5BEF08F0A2C00CF0A3C0E2
:100ECC000DF0A4C00EF0A5C00FF0B4C010F0B5C06A
:100EDC0011F0B6C012F0B7C013F028EC11F00CC032
:100EEC0025F00DC026F00EC027F00FC028F038EC0E
:100EFC0013F025C0A6F026C0A7F027C0A8F028C084
:100F0C00A9F0A6C00CF0A7C00DF0A8C00EF0A9C0A7
:100F1C000FF0AAEC17F00CC098F00DC099F06FB858
:100F2C009AEF07F09CEF07F0BAEF07F00001985129
:100F3C009911D8A4A4EF07F0A6EF07F0BAEF07F0C9
:100F4C00670EA119D8A4ADEF07F0AFEF07F0BAEF19
:100F5C0007F097BFB6EF07F0B4EF07F0BAEF07F062
:100F6C00904B912B0DEF08F0000192519311D8A4E6
:100F7C00C2EF07F0C4EF07F0F2EF07F097BFCBEF2B
:100F8C0007F0C9EF07F0F2EF07F0000EB225D96EAB
:100F9C00010EB321DA6E2E0EDF6EB24BB32B9F0710
:100FAC00D8A0A007000E936F010E926FF2EF07F01E
:100FBC00F2EF07F0000EB225D96E010EB321DA6EF6
:100FCC00300EDF6EB24BB32B9F07D8A0A007900753
:100FDC00D8A09107F2EF07F090519111D8A4F9EF36
:100FEC0007F0FBEF07F0E0EF07F0FDEF07F0000E66
:100FFC00B225D96E010EB321DA6E9851300FDF6E27
:10100C00B24BB32B9F07D8A0A0070DEF08F0A2C0DE
:10101C0033F0A3C034F0A4C035F0A5C036F0B4C092
:10102C001EF0B5C01FF0B6C020F0B7C021F0A6C0AE
:10103C001AF0A7C01BF0A8C01CF0A9C01DF0F1EC61
:10104C000EF01AC037F01BC038F01CC039F01DC0B0
:10105C003AF02DEC1EF033C0A2F034C0A3F035C032
:10106C00A4F036C0A5F0B4C00CF0B5C00DF0B6C0FD
:10107C000EF0B7C00FF0000E106E000E116E200EA9
:10108C00126E410E136E28EC11F00CC0B4F00DC0B2
:10109C00B5F00EC0B6F00FC0B7F000019607D8A09F
:1010AC009707AA4BAB2B5BEF08F09451AA5DAB51A1
:1010BC00800A466E9551800A4658D8B068EF08F001
:1010CC006AEF08F07CEF08F0B3BF76EF08F0B3518D
:1010DC0009E14B0EB25DD8A076EF08F078EF08F07E
:1010EC0063EF07F07CEF08F07CEF08F0925193115E
:1010FC00D8A483EF08F085EF08F098EF08F06FA8FC
:10110C008AEF08F08CEF08F098EF08F0000EB2258B
:10111C00D96E010EB321DA6E2E0EDF6EB24BB32BED
:10112C0098EF08F0000EB225D96E010EB321DA6EDD
:10113C00000EDF6E650E9E19D8A4A7EF08F0A9EF7C
:10114C0008F093EF09F0000EAB6F4F0EAA6F000E74
:10115C00AA25D96E010EAB21DA6E000EDF6E000EE1
:10116C009B6F000E9A6FB1BFC0EF08F0BEEF08F096
:10117C00CAEF08F0000E9B6F010E9A6FB06DB11F95
:10118C00D8B0B12BCAEF08F0000E9D6F020E9C6F09
:10119C00FDEF08F0AA07D8A0AB07000EAA25D96E60
:1011AC00010EAB21DA6EB0C00CF0B1C00DF0000E28
:1011BC000F6E0A0E0E6EC7EC1AF00C50300FDF6E6D
:1011CC00B0C00CF0B1C00DF0000E0F6E0A0E0E6E1A
:1011DC00E2EC19F00CC0B0F00DC0B1F000019C07AE
:1011EC00D8A09D079F07D8A0A007FDEF08F0B0512D
:1011FC00B111D8A404EF09F006EF09F0D0EF08F014
:10120C009DBF13EF09F09D5106E19C05D8B011EF7D
:10121C0009F013EF09F0D0EF08F015EF09F0AA0769
:10122C00D8A0AB079A519B11D8A41FEF09F021EF5E
:10123C0009F027EF09F0000E8B6F2B0E8A6F2DEF44
:10124C0009F0000E8B6F2D0E8A6F2DEF09F0000E3A
:10125C00AA25D96E010EAB21DA6E8AC0DFFF9F077B
:10126C00D8A0A007AA07D8A0AB07BF0E466EFF0EEA
:10127C00476E4550486E496A4650482647504922A9
:10128C0049500AE11A0E485CD8A04FEF09F052EF12
:10129C0009F0010E53EF09F0000E8E6F8F6B62EFA9
:1012AC0009F045C00CF00D6AB9EC1EF00CC08EF0C4
:1012BC000DC08FF062EF09F000018E518F11D8A490
:1012CC006AEF09F06CEF09F072EF09F0000E8D6F08
:1012DC00650E8C6F78EF09F0000E8D6F450E8C6FDC
:1012EC0078EF09F0000EAA25D96E010EAB21DA6E4B
:1012FC008CC0DFFF9F07D8A0A007000EB2250E6E92
:10130C00010EB3210F6E000EAA25106E010EAB213B
:10131C00116E1DEC1DF093EF09F03FC01CF040C0A6
:10132C001DF0000E1E6E010E1F6E9FC020F0A0C09F
:10133C0021F09FEC1BF01CC03FF01DC040F0A7EF4C
:10134C0009F012000F50800B1C6E0F500F241E6EF4
:10135C000EAEB3EF09F0B5EF09F0B8EF09F01E804F
:10136C00B8EF09F01E50D8B4BEEF09F0C0EF09F089
:10137C00D7EF09F01E28D8A4C6EF09F0C8EF09F082
:10138C00D2EF09F0000E0C6E000E0D6E000E0E6EFC
:10139C00000E0F6ED2EF09F00E8E000E0F6EE1EF05
:1013AC0009F0000E0C6E000E0D6E000E0E6E000E8F
:1013BC000F6EE1EF09F01350800B1D6E1C501D18C1
:1013CC00D8B4EBEF09F0EDEF09F0F0EF09F01C8C5D
:1013DC00F0EF09F0135013241D6E12AEF8EF09F064
:1013EC00FAEF09F0FDEF09F01D80FDEF09F01D503B
:1013FC00D8B403EF0AF005EF0AF01CEF0AF01D2831
:10140C00D8A40BEF0AF00DEF0AF017EF0AF0000E5C
:10141C00106E000E116E000E126E000E136E17EF92
:10142C000AF0128E000E136E26EF0AF0000E106EEC
:10143C00000E116E000E126E000E136E26EF0AF0E7
:10144C001E501D5CD8B02DEF0AF02FEF0AF05AEFAA
:10145C000AF01CAC34EF0AF036EF0AF03AEF0AF05F
:10146C00800E1C1A3AEF0AF01EC01FF01DC01EF0B1
:10147C001FC01DF00CC01FF010C00CF01FC010F0EE
:10148C000DC01FF011C00DF01FC011F00EC01FF0E9
:10149C0012C00EF01FC012F00FC01FF013C00FF0DF
:1014AC001FC013F05AEF0AF0000E1F6E1E50146E80
:1014BC00156A141E151E144A152A1D50166E176A2D
:1014CC00145016261550172217BE76EF0AF0175037
:1014DC0009E11A0E165CD8A076EF0AF078EF0AF044
:1014EC00B5EF0AF00C500D100E100F10D8A481EFB0
:1014FC000AF084EF0AF0010E85EF0AF0000E1F6E61
:10150C00000E0C6E000E0D6E000E0E6E000E0F6EA9
:10151C001DC01EF0C0EF0AF0B5EF0AF01FA099EF46
:10152C000AF09BEF0AF0A1EF0AF0D8901F300109E6
:10153C001F6EA5EF0AF0D8901F32A5EF0AF00CA091
:10154C00AAEF0AF0ACEF0AF0AFEF0AF01F8EAFEF84
:10155C000AF00F340F320E320D320C321E2A1D508F
:10156C001E5CD8A0BCEF0AF0BEEF0AF094EF0AF0B4
:10157C00C0EF0AF01CBCC5EF0AF0C7EF0AF00FEF82
:10158C000BF01E50D8A4CDEF0AF0CFEF0AF0DBEF32
:10159C000AF0000E0C6E000E0D6E000E0E6E000E9C
:1015AC000F6E69EF0CF069EF0CF010500C26115017
:1015BC000D2212500E2213500F220FA0E8EF0AF04A
:1015CC00EAEF0AF0BFEF0BF01FA0EFEF0AF0F1EF1C
:1015DC000AF0F7EF0AF0D8901F3001091F6EFBEFED
:1015EC000AF0D8901F32FBEF0AF00CA000EF0BF0C2
:1015FC0002EF0BF005EF0BF01F8E05EF0BF00F3425
:10160C000F320E320D320C321E2ABFEF0BF0BFEF31
:10161C000BF010500C5C11500D5812500E580F500E
:10162C00800A146E1350800A1458D8B020EF0BF0B7
:10163C0022EF0BF060EF0BF00CC014F00DC015F0A6
:10164C000EC016F00FC017F0141E151E161E171E16
:10165C00142A000E15221622172210501424186E6C
:10166C0011501520196E125016201A6E1350172097
:10167C001B6EFF0E18240C6EFF0E19200D6EFF0E44
:10168C001A200E6EFF0E1B200F6E800E1C1A1F6C84
:10169C001F50D8A454EF0BF056EF0BF068EF0BF083
:1016AC00010E0C26000E0D220E220F2268EF0BF0FD
:1016BC0068EF0BF010500C5E11500D5A12500E5A70
:1016CC0013500F5A0C500D100E100F10D8A471EFB0
:1016DC000BF073EF0BF0B4EF0BF01F50D8A479EFB5
:1016EC000BF07BEF0BF0B4EF0BF0000E0C6E000E5A
:1016FC000D6E000E0E6E000E0F6E69EF0CF069EFA2
:10170C000CF0B4EF0BF0D8900C360D360E360F36BD
:10171C001FAE93EF0BF095EF0BF098EF0BF00C80E6
:10172C0098EF0BF01FA09DEF0BF09FEF0BF0A3EFCA
:10173C000BF0D8801F36A7EF0BF0D8901F36A7EF11
:10174C000BF01E50D8B4ADEF0BF0AFEF0BF0B4EFC5
:10175C000BF01E06B4EF0BF0B4EF0BF00EAEB9EFBE
:10176C000BF0BBEF0BF089EF0BF0BFEF0BF0BFEF03
:10177C000BF0000E1D6E1FAEC6EF0BF0C8EF0BF09A
:10178C00E4EF0BF01FC014F07F0E1416D8B4D1EF99
:10179C000BF0D3EF0BF0D7EF0BF0010E1D6EE4EF57
:1017AC000BF00CA0DCEF0BF0DEEF0BF0E4EF0BF02A
:1017BC00010E1D6EE4EF0BF0E4EF0BF01D50D8B4EE
:1017CC00EAEF0BF0ECEF0BF01DEF0CF0010E0C261A
:1017DC00000E0D220E220F220FA0F7EF0BF0F9EFE7
:1017EC000BF01DEF0CF00CC014F00DC015F00EC07A
:1017FC0016F00FC017F01734173216321532143298
:10180C0014C00CF015C00DF016C00EF017C00FF080
:10181C001E28D8B414EF0CF016EF0CF01DEF0CF0E2
:10182C001E2A1DEF0CF01DEF0CF01DEF0CF01E2806
:10183C00D8B423EF0CF025EF0CF02FEF0CF01E506A
:10184C00D8A42BEF0CF02DEF0CF045EF0CF02FEF94
:10185C000CF0000E0C6E000E0D6E000E0E6E000ED7
:10186C000F6E1E50D8A43DEF0CF03FEF0CF045EF7F
:10187C000CF0000E1C6E45EF0CF045EF0CF01EA0AA
:10188C004AEF0CF04CEF0CF04FEF0CF00E8E52EFC9
:10189C000CF00E9E52EF0CF0D8901E300F6E1CAE5A
:1018AC005AEF0CF05CEF0CF05FEF0CF00F8E5FEF6B
:1018BC000CF00CC00CF00DC00DF00EC00EF00FC0F3
:1018CC000FF069EF0CF012004DC0D9FF4EC0DAFFDB
:1018DC00DECFF6FFDDCFF7FF0800F550250AD8A4C0
:1018EC007AEF0CF07CEF0CF0D1EF0EF04DC0D9FF7D
:1018FC004EC0DAFFDE2A000EDD22000E6C6E000EEA
:10190C006B6E6BC06FF06CC070F06D686E684DC024
:10191C00D9FF4EC0DAFFDECFF6FFDDCFF7FF0800B0
:10192C00F5502E0AD8A49DEF0CF09FEF0CF03AEF77
:10193C000DF0000E6E6E000E6D6E4DC0D9FF4EC0D8
:10194C00DAFFDE2A000EDD224DC0D9FF4EC0DAFFD1
:10195C00DECFF6FFDDCFF7FF0800F5502A0AD8A43A
:10196C00BAEF0CF0BCEF0CF0D9EF0CF04DC0D9FF76
:10197C004EC0DAFFDE2A000EDD224FC0D9FF50C068
:10198C00DAFFDFCF51F0020EDE26DFCF52F0000E71
:10199C00DD2251C0D9FF52C0DAFFDECF6DF0DDCFB2
:1019AC006EF03AEF0DF04DC0D9FF4EC0DAFFDECF2E
:1019BC0013F0DDCF14F051EC14F013C06DF014C023
:1019CC006EF0F2EF0CF04DC0D9FF4EC0DAFFDE2AFC
:1019DC00000EDD22F2EF0CF0D00E516EFF0E526EA7
:1019EC004DC0D9FF4EC0DAFFDECFF6FFDDCFF7FFDB
:1019FC000800F550536E546A5150532652505422DD
:101A0C0054500AE10A0E535CD8A00FEF0DF012EF00
:101A1C000DF0010E13EF0DF0000E556E566A2BEF04
:101A2C000DF04DC0D9FF4EC0DAFFDECFF6FFDDCF93
:101A3C00F7FF0800F5500C6E0D6AD7EC1EF00CC0C9
:101A4C0055F00DC056F02BEF0DF055505610D8A494
:101A5C0032EF0DF034EF0DF0E9EF0CF03AEF0DF042
:101A6C003AEF0DF03AEF0DF04DC0D9FF4EC0DAFF52
:101A7C00DECFF6FFDDCFF7FF0800F550126E136ACC
:101A8C00A8EC1CF012505D6E5D50D8B450EF0DF008
:101A9C0052EF0DF08EEF0DF04DC0D9FF4EC0DAFFB6
:101AAC00DECF51F0DDCF52F0010E5126000E522246
:101ABC0051C0F6FF52C0F7FF0800F550126E136AC2
:101ACC00A8EC1CF012505E6E5E50D8B470EF0DF0A6
:101ADC0072EF0DF08EEF0DF04DC0D9FF4EC0DAFF56
:101AEC00DECF51F0DDCF52F0020E5126000E522205
:101AFC0051C0F6FF52C0F7FF0800F550126E136A82
:101B0C00A8EC1CF012505F6E8EEF0DF08EEF0DF006
:101B1C00660E5D18D8A495EF0DF097EF0DF0D9EF88
:101B2C000DF04DC0D9FF4EC0DAFFDECFF6FFDDCF92
:101B3C00F7FF0800F5CF60F04DC0D9FF4EC0DAFFBB
:101B4C00DE2A000EDD224FC0D9FF50C0DAFFDFCFF6
:101B5C0051F0040EDE26DFCF52F0000EDD2251C014
:101B6C00D9FF52C0DAFFDECF59F0DECF5AF0DECF0C
:101B7C005BF0DECF5CF04BC03FF04CC040F059C086
:101B8C0041F05AC042F05BC043F05CC044F060C00E
:101B9C0045F016EC03F03FC04BF040C04CF0F0EFBA
:101BAC000EF0F0EF0EF05D0E0C6E000E0D6E270EAB
:101BBC000E6E060E0F6E000E116E020E106E64ECA1
:101BCC0019F00C500D10D8A4EEEF0DF0F0EF0DF055
:101BDC0097EF0EF04DC0D9FF4EC0DAFFDECF51F0BB
:101BEC00DDCF52F0010E5126000E522251C0F6FFED
:101BFC0052C0F7FF0800F5CF60F0BF0E516EFF0E1C
:101C0C00526E4DC0D9FF4EC0DAFFDECFF6FFDDCFEE
:101C1C00F7FF0800F550536E546A5150532652503A
:101C2C00542254500AE11A0E535CD8A020EF0EF047
:101C3C0023EF0EF0010E24EF0EF0000E576E586AD3
:101C4C003CEF0EF04DC0D9FF4EC0DAFFDECFF6FFF1
:101C5C00DDCFF7FF0800F5500C6E0D6AB9EC1EF0E5
:101C6C000CC057F00DC058F03CEF0EF05750581008
:101C7C00D8B443EF0EF045EF0EF05FEF0EF04FC00F
:101C8C00D9FF50C0DAFFDFCF51F0040EDE26DFCFD4
:101C9C0052F0000EDD2251C0D9FF52C0DAFFDECF68
:101CAC0059F0DECF5AF0DECF5BF0DECF5CF077EF91
:101CBC000EF04FC0D9FF50C0DAFFDFCF51F0040E49
:101CCC00DE26DFCF52F0000EDD2251C0D9FF52C00C
:101CDC00DAFFDECF59F0DECF5AF0DECF5BF0DECF8D
:101CEC005CF0020E4DC0D9FF4EC0DAFFDE26000EAE
:101CFC00DD224BC03FF04CC040F059C041F05AC0FF
:101D0C0042F05BC043F05CC044F060C045F016ECA0
:101D1C0003F03FC04BF040C04CF0F0EF0EF0F0EF92
:101D2C000EF04DC0D9FF4EC0DAFFDECFF6FFDDCF8F
:101D3C00F7FF0800F550250AD8A4A7EF0EF0A9EF7D
:101D4C000EF0C2EF0EF04DC0D9FF4EC0DAFFDE2A06
:101D5C00000EDD22000E0D6E250E0C6E4BC00EF02B
:101D6C004CC00FF058EC1AF0000E4C6E010E4B6E7E
:101D7C00F0EF0EF0F0EF0EF04DC0D9FF4EC0DAFFD1
:101D8C00DE2A000EDD22000E4C6E000E4B6EF0EFC4
:101D9C000EF0F0EF0EF04DC0D9FF4EC0DAFFDECFE3
:101DAC00F6FFDDCFF7FF0800F5500C6E0D6A4BC047
:101DBC000EF04CC00FF058EC1AF04DC0D9FF4EC0CD
:101DCC00DAFFDE2A000EDD22000E4C6E010E4B6E89
:101DDC00F0EF0EF012001D50800B266E1D501D24CE
:101DEC002C6E1CAEFCEF0EF0FEEF0EF001EF0FF0C0
:101DFC002C8001EF0FF02C50D8B407EF0FF009EF47
:101E0C000FF01EEF0FF02C28D8A40FEF0FF011EFEE
:101E1C000FF01BEF0FF0000E1A6E000E1B6E000E73
:101E2C001C6E000E1D6E1BEF0FF01C8E28EF0FF0BA
:101E3C00000E1A6E000E1B6E000E1C6E000E1D6E38
:101E4C0028EF0FF02150800B261A21502124276EE9
:101E5C0020AE33EF0FF035EF0FF038EF0FF0278097
:101E6C0038EF0FF02750D8B43EEF0FF040EF0FF0E3
:101E7C0055EF0FF02728D8A446EF0FF048EF0FF0DE
:101E8C0052EF0FF0000E1E6E000E1F6E000E206E35
:101E9C00000E216E52EF0FF0208E5DEF0FF0000E52
:101EAC001E6E000E1F6E000E206E000E216E27504F
:101EBC00D8B463EF0FF065EF0FF06FEF0FF02C500D
:101ECC00D8A46BEF0FF06DEF0FF07BEF0FF06FEF0F
:101EDC000FF0000E1A6E000E1B6E000E1C6E000E24
:101EEC001D6E27EF11F027EF11F020501A02F3CFDF
:101EFC0031F0F4CF32F03150286E296A2A6A2B6AFD
:101F0C0032502D6E2E6A2F6A306A1F501B02F3CF8F
:101F1C0031F0F4CF32F031502826000E29222A223B
:101F2C002B2232502D26000E2E222F2230221E5014
:101F3C001C02F3CF31F0F4CF32F031502826000ED2
:101F4C0029222A222B2232502D26000E2E222F221D
:101F5C0030222AC02BF029C02AF028C029F0286A88
:101F6C001E501B02F3CF31F0F4CF32F03150282643
:101F7C0032502922000E2A22000E2B221F501A0248
:101F8C00F3CF31F0F4CF32F03150282632502922E1
:101F9C00000E2A22000E2B222AC02BF029C02AF078
:101FAC0028C029F0286A1E501A02F3CF31F0F4CF62
:101FBC0032F03150282632502922000E2A22000EEF
:101FCC002B2220501B02F3CF31F0F4CF32F03150E2
:101FDC002D2632502E22000E2F22000E30221F50A2
:101FEC001C02F3CF31F0F4CF32F031502D263250A9
:101FFC002E22000E2F22000E302220501C02F3CF76
:10200C0031F0F4CF32F03150226E3250236E246A0C
:10201C00256A24C025F023C024F022C023F0226AB4
:10202C0022502D2623502E2224502F222550302290
:10203C0028C022F029C023F02AC024F02BC025F0A0
:10204C00190E2EEF10F0D890253224322332223282
:10205C00E82E29EF10F022502D2623502E2224504A
:10206C002F22255030222AC02BF029C02AF028C05C
:10207C0029F0286A27502CC022F0236A2226000E51
:10208C002322820E2224316EFF0E2320326E66EF45
:10209C0010F0D8902D362E362F3630362BAE59EF19
:1020AC0010F05BEF10F05CEF10F02D80D89028361C
:1020BC0029362A362B363106D8A0320666EF10F0B8
:1020CC002FAE6BEF10F06DEF10F04FEF10F06FEFD5
:1020DC0010F0000E276E2BAE76EF10F078EF10F0AC
:1020EC00A0EF10F0FF0E2814226EFF0E2914236EA1
:1020FC00FF0E2A14246E7F0E2B14256E22502310F3
:10210C0024102510D8B48DEF10F08FEF10F093EF52
:10211C0010F0010E276EA0EF10F02DA098EF10F02C
:10212C009AEF10F0A0EF10F0010E276EA0EF10F058
:10213C00A0EF10F02750D8B4A6EF10F0A8EF10F0D5
:10214C00D0EF10F0010E2D26000E2E222F22302261
:10215C0030A0B3EF10F0B5EF10F0D0EF10F02DC0B1
:10216C0022F02EC023F02FC024F030C025F02534EF
:10217C00253224322332223222C02DF023C02EF0FD
:10218C0024C02FF025C030F0314A322AD0EF10F0A5
:10219C00D0EF10F032BEDBEF10F0325008E13128F6
:1021AC00D8A0DBEF10F0DDEF10F0E7EF10F0000E31
:1021BC002D6E000E2E6E800E2F6E7F0E306E1BEF6E
:1021CC0011F032BEF4EF10F0325006E13104D8B009
:1021DC00F2EF10F0F4EF10F000EF11F0000E2D6E96
:1021EC00000E2E6E000E2F6E000E306E000E266E40
:1021FC001BEF11F031C02CF0FF0E2D16FF0E2E161A
:10220C007F0E2F16000E30162CA00FEF11F011EFD1
:10221C0011F014EF11F02F8E14EF11F0D8902C3028
:10222C00306E1BEF11F01BEF11F0265030122DC049
:10223C001AF02EC01BF02FC01CF030C01DF027EF81
:10224C0011F012000F50800B1C6E0F500F24236ED8
:10225C000EAE33EF11F035EF11F038EF11F02380A3
:10226C0038EF11F02350D8B43EEF11F040EF11F0DD
:10227C0057EF11F02328D8A446EF11F048EF11F0D6
:10228C0052EF11F0000E0C6E000E0D6E000E0E6E65
:10229C00000E0F6E52EF11F00E8E000E0F6E61EFEE
:1022AC0011F0000E0C6E000E0D6E000E0E6E000E78
:1022BC000F6E61EF11F01350800B1C1A1350132486
:1022CC00246E12AE6CEF11F06EEF11F071EF11F095
:1022DC00248071EF11F02450D8B477EF11F079EF1E
:1022EC0011F090EF11F02428D8A47FEF11F081EFBA
:1022FC0011F08BEF11F0000E106E000E116E000E2F
:10230C00126E000E136E8BEF11F0128E000E136E08
:10231C009AEF11F0000E106E000E116E000E126E80
:10232C00000E136E9AEF11F01050111012101310C2
:10233C00D8A4A3EF11F0A5EF11F0BFEF11F0000E30
:10234C000C6E000E0D6E000E0E6E000E0F6E800EDB
:10235C000E127F0E0F121C500F120CC00CF00DC081
:10236C000DF00EC00EF00FC00FF037EF13F037EF7B
:10237C0013F02350D8A4C5EF11F0C7EF11F0DBEF29
:10238C0011F0000E0C6E000E0D6E000E0E6E000E97
:10239C000F6E0CC00CF00DC00DF00EC00EF00FC087
:1023AC000FF037EF13F037EF13F02450146E156A5B
:1023BC00141E151E144A152A2350166E176A145033
:1023CC001626155017227F0E16241D6E000E172090
:1023DC001E6E0CC018F00DC019F00EC01AF00FC014
:1023EC001BF0000E0C6E000E0D6E000E0E6E000E2D
:1023FC000F6E000E1F6E000E206E000E216E000E72
:10240C00226E000E246E47EF12F02450D8B411EF58
:10241C0012F013EF12F02CEF12F0D8901836193688
:10242C001A361B36D8900C360D360E360F3622AEB9
:10243C0022EF12F024EF12F025EF12F00C80D8905E
:10244C001F362036213622362CEF12F01050185C35
:10245C001150195812501A5813501B58D8A039EF54
:10246C0012F03BEF12F046EF12F0228C1050185E77
:10247C001150195A12501A5A13501B5A46EF12F097
:10248C00242A190E24644DEF12F04FEF12F00BEFCB
:10249C0012F051EF12F0185019101A101B10D8B47A
:1024AC005AEF12F05CEF12F078EF12F01F8078EF19
:1024BC0012F078EF12F0D8900C360D360E360F362F
:1024CC0022AE6BEF12F06DEF12F06EEF12F00C808B
:1024DC00D8901F362036213622361D06D8A01E066F
:1024EC0078EF12F00EAE7DEF12F07FEF12F061EF8D
:1024FC0012F081EF12F0000E246E22AE88EF12F073
:10250C008AEF12F0B2EF12F0FF0E1F14146EFF0ED2
:10251C002014156EFF0E2114166E7F0E2214176EEA
:10252C001450151016101710D8B49FEF12F0A1EF1D
:10253C0012F0A5EF12F0010E246EB2EF12F00CA007
:10254C00AAEF12F0ACEF12F0B2EF12F0010E246E03
:10255C00B2EF12F0B2EF12F02450D8B4B8EF12F080
:10256C00BAEF12F0E2EF12F0010E0C26000E0D2263
:10257C000E220F220FA0C5EF12F0C7EF12F0E2EF00
:10258C0012F00CC014F00DC015F00EC016F00FC0F8
:10259C0017F01734173216321532143214C00CF0EF
:1025AC0015C00DF016C00EF017C00FF01D4A1E2AF4
:1025BC00E2EF12F0E2EF12F01EBEEDEF12F01E5041
:1025CC0008E11D28D8A0EDEF12F0EFEF12F0FCEFB0
:1025DC0012F0000E1E6E1D68000E0C6E000E0D6EBD
:1025EC00000E0E6E000E0F6EFCEF12F01EBE09EF09
:1025FC0013F01E5006E11D04D8B007EF13F009EFDD
:10260C0013F019EF13F0000E1E6E000E1D6E000E6F
:10261C000C6E000E0D6E000E0E6E000E0F6E000E88
:10262C001C6E19EF13F01DC023F023A020EF13F044
:10263C0022EF13F025EF13F00E8E28EF13F00E9E01
:10264C0028EF13F0D89023300F6E1C500F120CC0D3
:10265C000CF00DC00DF00EC00EF00FC00FF037EFE8
:10266C0013F01200CAC035F0CBC036F0CCC037F036
:10267C00CDC038F025C035F026C036F027C037F075
:10268C0028C038F0810E296EFF0E2A6E35C02BF053
:10269C0036C02CF037C02DF038C02EF0180E5CEF81
:1026AC0013F0D8902E322D322C322B32E82E57EFDD
:1026BC0013F02B502924336E000E2A20346E34BEB6
:1026CC0071EF13F0345009E1170E335CD8A071EFA1
:1026DC0013F073EF13F07DEF13F025C025F026C037
:1026EC0026F027C027F028C028F050EF14F034BE95
:1026FC0082EF13F084EF13F0FCEF13F033C029F0EA
:10270C00FF0E2A6EFF0E2B6E7F0E2C6E000E2D6EA2
:10271C00296693EF13F09BEF13F02D342D322C32EE
:10272C002B322A32292E8EEF13F02AC02FF02BC019
:10273C0030F02CC031F02DC032F02F503514296EF2
:10274C00305036142A6E315037142B6E32503814E8
:10275C002C6E29502A102B102C10D8A4B8EF13F083
:10276C00BAEF13F0C4EF13F025C025F026C026F005
:10277C0027C027F028C028F050EF14F035C029F0FE
:10278C0036C02AF037C02BF038C02CF0200ED4EF16
:10279C0013F0D8902C322B322A322932E82ECFEF7C
:1027AC0013F029502A102B102C10D8B4E0EF13F092
:1027BC00E2EF13F0EAEF13F02F50352630503622AB
:1027CC0031503722325038222F1C296E301C2A6E81
:1027DC00311C2B6E321C2C6E295035162A50361695
:1027EC002B5037162C50381646EF14F035C029F004
:1027FC0036C02AF037C02BF038C02CF0200E0CEF6E
:10280C0014F0D8902C322B322A322932E82E07EFD2
:10281C0014F029502A102B102C10D8A418EF14F0F7
:10282C001AEF14F024EF14F0000E356E000E366E15
:10283C00000E376E000E386E46EF14F0D89035341B
:10284C00296E36342A6E37342B6E38342C6E295060
:10285C002A102B102C10D8B436EF14F038EF14F0DB
:10286C0046EF14F0000E356E000E366E800E376E8D
:10287C00BF0E386E46EF14F046EF14F046EF14F02E
:10288C0035C025F036C026F037C027F038C028F008
:10289C0050EF14F01200000E216E000E206E000E90
:1028AC001A6E000E196E5FEF14F0134A142A5FEFC4
:1028BC0014F0010E1F6E13C0F6FF14C0F7FF0800D2
:1028CC00F550200AD8B46DEF14F06FEF14F08EEFC2
:1028DC0014F0F70E156EFF0E166E13C0F6FF14C033
:1028EC00F7FF0800F550176E186A1550172616508A
:1028FC001822185009E1050E175CD8A088EF14F0C7
:10290C008AEF14F08EEF14F0000E1F6E8EEF14F0A1
:10291C001FC01BF01C6AA3EF14F013C0F6FF14C009
:10292C00F7FF0800F5500C6E0D6AB1EC1DF00CC0F1
:10293C001BF00DC01CF0A3EF14F01B501C10D8A4FE
:10294C00AAEF14F0ACEF14F05BEF14F0BAEF14F044
:10295C00BAEF14F0000E1A6E010E196EB6EF14F0E9
:10296C00134A142AFEEF14F013C0F6FF14C0F7FF3D
:10297C000800F550156E166A1650000AD8B4C9EF47
:10298C0014F0FEEF14F015502B0AD8B4B6EF14F077
:10299C00060AD8B4B0EF14F0FEEF14F0FEEF14F00A
:1029AC00D00E156EFF0E166E13C0F6FF14C0F7FF97
:1029BC000800F550176E186A155017261650182275
:1029CC00171E181E174A182A20C00CF021C00DF033
:1029DC00000E0F6E0A0E0E6E0EEC1FF017500C242C
:1029EC00206E18500D20216E134A142AFEEF14F09D
:1029FC00D00E156EFF0E166E13C0F6FF14C0F7FF47
:102A0C000800F550176E186A155017261650182224
:102A1C0018500AE10A0E175CD8A017EF15F01AEF40
:102A2C0015F0010E1BEF15F0000E1D6E1E6A2FEF38
:102A3C0015F013C0F6FF14C0F7FF0800F5500C6E2C
:102A4C000D6AD7EC1EF00CC01DF00DC01EF02FEF60
:102A5C0015F01D501E10D8A436EF15F038EF15F0F8
:102A6C00D6EF14F03AEF15F019501A10D8A441EF24
:102A7C0015F043EF15F051EF15F020C015F021C003
:102A8C0016F0151E161E154A162A15C013F016C080
:102A9C0014F057EF15F020C013F021C014F057EFCD
:102AAC0015F01200146E1450D8B45FEF15F061EFEE
:102ABC0015F083EF15F00FBE68EF15F066EF15F00B
:102ACC0083EF15F00CC010F00DC011F00EC012F019
:102ADC000FC013F0101E111E121E131E102A000E12
:102AEC0011221222132210C016F011C017F012C0BE
:102AFC0018F013C019F08DEF15F00CC016F00DC0C6
:102B0C0017F00EC018F00FC019F08DEF15F00C5027
:102B1C000D100E100F10D8A496EF15F098EF15F0BD
:102B2C00A4EF15F0000E0C6E000E0D6E000E0E6E66
:102B3C00000E0F6E45EF16F045EF16F0960E156E63
:102B4C00B0EF15F0152AD890193218321732163208
:102B5C00B0EF15F0000E1614106E000E1714116E57
:102B6C00000E1814126EFE0E1914136E1050111064
:102B7C0012101310D8A4C5EF15F0C7EF15F0A8EF7D
:102B8C0015F0D7EF15F0D7EF15F0152A010E162614
:102B9C00000E172218221922D89019321832173227
:102BAC001632000E1614106E000E1714116E000E55
:102BBC001814126EFF0E1914136E105011101210FF
:102BCC001310D8A4ECEF15F0EEEF15F0CBEF15F0D9
:102BDC00FAEF15F0FAEF15F01506D89016361736F1
:102BEC0018361936FAEF15F018BEFFEF15F001EF95
:102BFC0016F00BEF16F0020E156007EF16F009EF4A
:102C0C0016F0F2EF15F00BEF16F015B010EF16F002
:102C1C0012EF16F015EF16F0189E15EF16F0D8906F
:102C2C00153215C010F0116A126A136A10C013F035
:102C3C00126A116A106A10501612115017121250A3
:102C4C001812135019121450D8B42FEF16F031EF8C
:102C5C0016F03BEF16F00FBE38EF16F036EF16F00D
:102C6C003BEF16F0198E3BEF16F016C00CF017C0A8
:102C7C000DF018C00EF019C00FF045EF16F0120051
:102C8C00000E33143B6E000E34143C6E800E351463
:102C9C003D6E7F0E36143E6E3B503C103D103E1088
:102CAC00D8A45BEF16F05DEF16F067EF16F0000E90
:102CBC00336E000E346E000E356E000E366E67EFFE
:102CCC0016F0000E37143B6E000E38143C6E800E5E
:102CDC0039143D6E7F0E3A143E6E3B503C103D1045
:102CEC003E10D8A47CEF16F07EEF16F088EF16F0AD
:102CFC00000E376E000E386E000E396E000E3A6EF6
:102D0C0088EF16F036AE8DEF16F08FEF16F0AEEFB3
:102D1C0016F033C03BF034C03CF035C03DF036C04B
:102D2C003EF03B1E3C1E3D1E3E1E3B2A000E3C222E
:102D3C003D223E22000E3B24336E000E3C20346EAE
:102D4C00000E3D20356E800E3E20366EAEEF16F036
:102D5C003AAEB3EF16F0B5EF16F0D2EF16F037C06F
:102D6C003BF038C03CF039C03DF03AC03EF03B1E61
:102D7C003C1E3D1E3E1E3B2A000E3C223D223E22A6
:102D8C00000E3B24376E000E3C20386E000E3D20AA
:102D9C00396E800E3E203A6E000E331A000E341A35
:102DAC00000E351A800E361A000E371A000E381A1D
:102DBC00000E391A800E3A1A3750335C385034589A
:102DCC00395035583A503658D8B0EFEF16F0F1EF7D
:102DDC0016F0F4EF16F0D890F9EF16F0D880F9EF62
:102DEC0016F0F9EF16F0120072EC1FF0FEEF16F071
:102DFC00D20E0E6E000E0F6E86EC1FF00CC010F093
:102E0C000DC011F01DEC1DF06D0E0001D219D8A4EF
:102E1C0012EF17F014EF17F03EEF17F06F0ED319F7
:102E2C00D8A41BEF17F01DEF17F03EEF17F0640E50
:102E3C00D419D8A424EF17F026EF17F03EEF17F0B3
:102E4C00650ED519D8A42DEF17F02FEF17F03EEF24
:102E5C0017F0310ED619D8A436EF17F038EF17F05B
:102E6C003EEF17F07DEC1FF0E8EC1CF03EEF17F096
:102E7C006D0E0001D219D8A446EF17F048EF17F0E9
:102E8C0072EF17F06F0ED319D8A44FEF17F051EF64
:102E9C0017F072EF17F0640ED419D8A458EF17F08E
:102EAC005AEF17F072EF17F0650ED519D8A461EF31
:102EBC0017F063EF17F072EF17F0320ED619D8A493
:102ECC006AEF17F06CEF17F072EF17F053EC18F085
:102EDC00E8EC1CF072EF17F0630E0001D219D8A4C5
:102EEC007AEF17F07CEF17F0FEEF16F06C0ED3199B
:102EFC00D8A483EF17F085EF17F0FEEF16F0650EF0
:102F0C00D419D8A48CEF17F08EEF17F0FEEF16F053
:102F1C00610ED519D8A495EF17F097EF17F0FEEFC7
:102F2C0016F0720ED619D8A49EEF17F0A0EF17F07A
:102F3C00FEEF16F0E8EC1CF0FEEF16F0FEEF16F0CC
:102F4C00FEEF16F03CEF00F00E340F34156E1550FA
:102F5C00D8A4B3EF17F0B5EF17F0C1EF17F0000ED0
:102F6C000C6E000E0D6E000E0E6E000E0F6E52EFFC
:102F7C0018F052EF18F00CC010F00DC011F00EC08C
:102F8C0012F00FC013F0200ED1EF17F0D8901332BF
:102F9C00123211321032E82ECCEF17F01050146EA2
:102FAC000E8EFF0E0C16FF0E0D16FF0E0E16000EDB
:102FBC000F16960E155E15BEE8EF17F0E6EF17F03C
:102FCC000CEF18F01550800A970FD8B0F0EF17F0EF
:102FDC00F2EF17F000EF18F0000E0C6E000E0D6EF5
:102FEC00000E0E6E000E0F6E52EF18F052EF18F02E
:102FFC0000EF18F0D8900F320E320D320C32153E15
:10300C0000EF18F036EF18F036EF18F01F0E1564BD
:10301C0012EF18F014EF18F02AEF18F0000E0C6EE7
:10302C00000E0D6E000E0E6E000E0F6E52EF18F0AD
:10303C0052EF18F02AEF18F0D8900C360D360E36E9
:10304C000F3615062AEF18F01550D8A430EF18F0EB
:10305C0032EF18F022EF18F036EF18F036EF18F0C8
:10306C001450D8B43CEF18F03EEF18F048EF18F0BD
:10307C000F1E0E1E0D1E0C6C000E0D220E220F22AA
:10308C0048EF18F00CC00CF00DC00DF00EC00EF097
:10309C000FC00FF052EF18F01200E8EC1CF0000E0D
:1030AC0001017D6F000E7C6F000E786F000E796F42
:1030BC00000E7A6F000E7B6F64EF18F0000E0D6E31
:1030CC00000E0C6E76EC1EF00CC07CF10DC07DF188
:1030DC007CC10CF07DC10DF0000E0DBEFF0E0E6E0E
:1030EC000F6E010E58EC15F00CC01AF00DC01BF051
:1030FC000EC01CF00FC01DF00A0E1E6E280E1F6EA7
:10310C00A00E206E3B0E216EF1EC0EF01AC078F181
:10311C001BC079F11CC07AF11DC07BF1640E00015B
:10312C00B86F010EB96F100EBA6F060EBB6F78C177
:10313C00BCF079C1BDF07AC1BEF07BC1BFF082ECAE
:10314C001DF0640E0D6E010E0E6E65EC1CF0000E83
:10315C0001017F6F000E7E6F7FBFBEEF18F0100E67
:10316C007E5D270E7F59D8A0BEEF18F0C0EF18F087
:10317C00C4EF18F064EF18F064EF18F07E4B7F2B5F
:10318C007FBFD2EF18F0100E7E5D270E7F59D8A0AE
:10319C00D2EF18F0D4EF18F0C4EF18F064EF18F079
:1031AC0064EF18F064EF18F0E8EC1CF01200CEC0DD
:1031BC0016F0CFC017F0D0C018F0D1C019F00CC069
:1031CC0016F00DC017F00EC018F00FC019F016C095
:1031DC0010F017C011F018C012F019C013F0180E2F
:1031EC00FDEF18F0D8901332123211321032E82E53
:1031FC00F8EF18F01050146E156A14501510D8A46E
:10320C000AEF19F00CEF19F030EF19F0D8901634D2
:10321C00106E1734116E1834126E1934136E105060
:10322C00111012101310D8A41EEF19F020EF19F082
:10323C0026EF19F0000E0D6E020E0C6E63EF19F0F6
:10324C00000E0D6E030E0C6E63EF19F063EF19F0A8
:10325C0063EF19F014281510D8A437EF19F039EFD3
:10326C0019F05DEF19F016C010F017C011F018C06E
:10327C0012F019C013F0090ED89010361136123610
:10328C001336E82E42EF19F01050111012101310D3
:10329C00D8B453EF19F056EF19F0010E57EF19F09F
:1032AC00000E0C6E0D6A63EF19F063EF19F0000E4F
:1032BC000D6E040E0C6E63EF19F012000CC015F0BD
:1032CC000DC016F00EC017F00FC018F01006D8A0E5
:1032DC001106102806E11128D8A477EF19F079EF20
:1032EC0019F08CEF19F0000E0D6E000E0C6EE1EF64
:1032FC0019F0E1EF19F08CEF19F0154A162A174A5C
:10330C00182A1006D8A011068CEF19F015C0D9FF99
:10331C0016C0DAFFDF50D8B496EF19F098EF19F019
:10332C00C7EF19F017C0F6FF18C0F7FF0800F550EB
:10333C000009D8B4A4EF19F0A6EF19F0C7EF19F0F3
:10334C0010501110D8B4ADEF19F0AFEF19F0C7EF62
:10335C0019F015C0D9FF16C0DAFFDF50126E17C076
:10336C00F6FF18C0F7FF0800F5501218D8B4C1EFDB
:10337C0019F0C3EF19F083EF19F0C7EF19F0C7EF8D
:10338C0019F017C0F6FF18C0F7FF0800F550126EC1
:10339C00136A121E131E124A132A15C0D9FF16C027
:1033AC00DAFFDF50146E145012240C6E000E132032
:1033BC000D6EE1EF19F01200000E116E0FBEEBEF67
:1033CC0019F0E9EF19F0F3EF19F00E6C0F1ED8B0ED
:1033DC000F2A010E116EF3EF19F00DBEFAEF19F072
:1033EC00F8EF19F002EF1AF00C6C0D1ED8B00D2A84
:1033FC00010E111A02EF1AF0000E136E000E126E6F
:10340C000E500F10D8B40DEF1AF00FEF1AF043EF67
:10341C001AF0010E106E19EF1AF0D8900E360F3606
:10342C00102A19EF1AF00FAE1EEF1AF020EF1AF057
:10343C0013EF1AF024EF1AF024EF1AF0D89012368A
:10344C0013360E500C5C0F500D58D8A030EF1AF0FC
:10345C0032EF1AF039EF1AF00E500C5E0F500D5A75
:10346C00128039EF1AF0D8900F320E32102E24EF52
:10347C001AF043EF1AF043EF1AF01150D8B449EF99
:10348C001AF04BEF1AF051EF1AF0126C131ED8B061
:10349C00132A51EF1AF012C00CF013C00DF057EFB5
:1034AC001AF012000E500F10D8B45FEF1AF061EF43
:1034BC001AF06CEF1AF00E500F10D8A468EF1AF037
:1034CC006AEF1AF071EF1AF06CEF1AF00C509BECDB
:1034DC001FF0C6EF1AF020EE04F00E50D9260F5054
:1034EC00DA22DE50DE10D8B47EEF1AF080EF1AF03C
:1034FC009DEF1AF020EE04F00E50D9260F50DA2270
:10350C0010EE02F00E50E1260F50E222DE50E65C87
:10351C00E650800A146EDE50800A1458D8B099EF29
:10352C001AF09BEF1AF0C6EF1AF09DEF1AF020EE8E
:10353C0002F00E50D9260F50DA22DECF10F0DDCF7C
:10354C0011F00EC0D9FF0FC0DAFFDECF12F0DDCFC5
:10355C0013F010501224D96E11501320DA6E0CC0D7
:10356C00DFFF20EE02F00E50D9260F50DA22DE2AB1
:10357C00000EDD22C6EF1AF0C6EF1AF0C6EF1AF0F5
:10358C001200000E116E0DBED0EF1AF0CEEF1AF035
:10359C00D8EF1AF00C6C0D1ED8B00D2A010E116E5E
:1035AC00D8EF1AF00FBEDFEF1AF0DDEF1AF0E5EFEF
:1035BC001AF00E6C0F1ED8B00F2AE5EF1AF00E5051
:1035CC000F10D8B4ECEF1AF0EEEF1AF01EEF1BF060
:1035DC00010E106EF8EF1AF0D8900E360F36102A36
:1035EC00F8EF1AF00FAEFDEF1AF0FFEF1AF0F2EF52
:1035FC001AF003EF1BF003EF1BF00E500C5C0F5096
:10360C000D58D8A00CEF1BF00EEF1BF014EF1BF0B5
:10361C000E500C5E0F500D5A14EF1BF0D8900F3259
:10362C000E32102E03EF1BF01EEF1BF01EEF1BF0E3
:10363C001150D8B424EF1BF026EF1BF02CEF1BF02D
:10364C000C6C0D1ED8B00D2A2CEF1BF00CC00CF01E
:10365C000DC00DF032EF1BF01200000E066E02BE14
:10366C003CEF1BF03AEF1BF044EF1BF0016C021E19
:10367C00D8B0022A010E066E44EF1BF004BE4BEFCD
:10368C001BF049EF1BF051EF1BF0036C041ED8B07C
:10369C00042A51EF1BF003500410D8B458EF1BF060
:1036AC005AEF1BF08AEF1BF0010E056E64EF1BF056
:1036BC00D89003360436052A64EF1BF004AE69EF8C
:1036CC001BF06BEF1BF05EEF1BF06FEF1BF06FEF5F
:1036DC001BF00350015C04500258D8A078EF1BF08B
:1036EC007AEF1BF080EF1BF00350015E0450025A7E
:1036FC0080EF1BF0D89004320332052E6FEF1BF0D5
:10370C008AEF1BF08AEF1BF00650D8B490EF1BF039
:10371C0092EF1BF098EF1BF0016C021ED8B0022A3E
:10372C0098EF1BF001C001F002C002F09EEF1BF0FD
:10373C0012006FA0A4EF1BF0A6EF1BF0B2EF1BF072
:10374C001EC015F01FC016F01CC017F01DC018F0DD
:10375C0007EC1EF0B2EF1BF021BEB7EF1BF0B9EF78
:10376C001BF0BFEF1BF020C025F021C026F0C3EFEB
:10377C001BF0000E266E000E256E000E246E000E41
:10378C00236ED7EF1BF0000E0D6E200E0C6E1CC0BE
:10379C000EF01DC00FF058EC1AF0234A242AD7EF74
:1037AC001BF02550235C2450800A226E2650800A80
:1037BC002258D8A0E4EF1BF0E6EF1BF0C9EF1BF08A
:1037CC006FB0EBEF1BF0EDEF1BF0F9EF1BF01EC031
:1037DC0015F01FC016F01CC017F01DC018F007EC38
:1037EC001EF0F9EF1BF01EC00CF01FC00DF0DEEC4C
:1037FC001DF025500C241C6E26500D201D6E07EF5D
:10380C001CF01200000E0C14146E000E0D14156E2C
:10381C00800E0E14166E7F0E0F14176E14501510AA
:10382C0016101710D8A41DEF1CF01FEF1CF029EF79
:10383C001CF0000E0C6E000E0D6E000E0E6E000EC7
:10384C000F6E29EF1CF0000E1014146E000E1114E4
:10385C00156E800E1214166E7F0E1314176E145004
:10386C00151016101710D8A43EEF1CF040EF1CF0EA
:10387C004AEF1CF0000E106E000E116E000E126E50
:10388C00000E136E4AEF1CF010500C180FE1115083
:10389C000D180CE112500E1809E113500F18D8B482
:1038AC005AEF1CF05CEF1CF05FEF1CF0D89064EF4B
:1038BC001CF0D88064EF1CF064EF1CF01200000EBA
:1038CC00126E000E116E87EF1CF011500D240F6E4E
:1038DC0012500E20106E0FC0F6FF10C0F7FFF86AE2
:1038EC00050EF76403D00800F55005D0F6CFE1FFC4
:1038FC00F7CFE2FFE75048EC1FF0114A122A87EF8E
:10390C001CF011500D240F6E12500E20106E0FC0B3
:10391C00F6FF10C0F7FFF86A050EF76403D0080035
:10392C00F55005D0F6CFE1FFF7CFE2FFE7500009E5
:10393C00D8A4A3EF1CF0A5EF1CF06BEF1CF0A7EFC5
:10394C001CF01200BF0E146EFF0E156E12C016F096
:10395C0013C017F0145016261550172217500AE1F1
:10396C001A0E165CD8A0BDEF1CF0C0EF1CF0010EB7
:10397C00C1EF1CF0000E186E196AD1EF1CF012C0CA
:10398C000CF013C00DF0B9EC1EF00CC018F00DC00B
:10399C0019F0D1EF1CF018501910D8B4D8EF1CF056
:1039AC00DAEF1CF0E3EF1CF0200E1210126E135025
:1039BC00136EE7EF1CF0E7EF1CF012C012F013C00F
:1039CC0013F01200000E0D6E000E0C6E0DBEF8EF13
:1039DC001CF00D5009E10A0E0C5CD8A0F8EF1CF09D
:1039EC00FAEF1CF0FEEF1CF018EF1DF018EF1DF0B5
:1039FC00500E0C24D96E010E0D20DA6E000EDF6E07
:103A0C000C4A0D2A0DBE14EF1DF00D5009E10A0EE3
:103A1C000C5CD8A014EF1DF016EF1DF0FEEF1CF09F
:103A2C0018EF1DF0000E726E000E716E120010C0B9
:103A3C0014F011C015F00EC016F00FC017F029EFDE
:103A4C001DF029EF1DF01450126E1550136E144A10
:103A5C00152A12C0F6FF13C0F7FFF86A16C0D9FF7B
:103A6C0017C0DAFF164A172A050EF76403D00800B0
:103A7C00F55005D0F6CFE1FFF7CFE2FFE750DF6E50
:103A8C00DF50D8A44CEF1DF04EEF1DF029EF1DF0C8
:103A9C0050EF1DF0120063C067F064C068F0000EB8
:103AAC006A6E000E696E6FEF1DF061C04BF062C064
:103ABC004CF0670E4D6E000E4E6E65C04FF066C03A
:103ACC0050F06AEC0CF04B5069264C506A226FEFA8
:103ADC001DF067C0F6FF68C0F7FF0800F55000093D
:103AEC00D8A47BEF1DF07DEF1DF05BEF1DF069C0DE
:103AFC0061F06AC062F01200BC0E0001C26F000ED1
:103B0C00C36FB8C0C4F0B9C0C5F0000EC76F000ECB
:103B1C00C66F000EC96F000EC86FC40E616E000E2A
:103B2C00626EBAC063F0BBC064F0C20E656E000E6C
:103B3C00666E51EC1DF061C0C0F062C0C1F00001B6
:103B4C00C651B825D96EC751B921DA6E000EDF6E99
:103B5C00B0EF1DF01200010E126E200E0C180D109D
:103B6C00D8B4BBEF1DF0BDEF1DF0D8EF1DF0F70E74
:103B7C000E6EFF0E0F6E0CC010F00DC011F00E503B
:103B8C0010260F501122115009E1050E105CD8A01F
:103B9C00D2EF1DF0D4EF1DF0D8EF1DF0000E126E19
:103BAC00D8EF1DF012C00CF00D6ADDEF1DF0120005
:103BBC000CC010F00DC011F0E8EF1DF00C4A0D2AEE
:103BCC00E8EF1DF00CC0D9FF0DC0DAFFDF50D8A410
:103BDC00F2EF1DF0F4EF1DF0E4EF1DF0F6EF1DF029
:103BEC0010C00EF011C00FF00E1E0F1E0E4A0F2A41
:103BFC000C500E240C6E0D500F200D6E06EF1EF0A7
:103C0C001200000E1B6E000E1A6E1AEF1EF019C079
:103C1C000CF00D6A17C00EF018C00FF058EC1AF02B
:103C2C001A4A1B2A1AEF1EF01A501524D96E1B5073
:103C3C001620DA6EDF50196E1950D8A428EF1EF03A
:103C4C002AEF1EF00DEF1EF02CEF1EF01200000EEE
:103C5C00371A000E381A000E391A800E3A1A33C071
:103C6C000CF034C00DF035C00EF036C00FF037C07C
:103C7C0010F038C011F039C012F03AC013F0A8ECB3
:103C8C0009F00CC033F00DC034F00EC035F00FC08D
:103C9C0036F051EF1EF01200500E7124D96E010E49
:103CAC007220DA6EAECFDFFF500E7124D96E010E8A
:103CBC007220DA6EDF5057EC1FF0714A722A71C015
:103CCC0001F072C002F0000E046E0A0E036E33ECAB
:103CDC001BF001C071F002C072F075EF1EF0120003
:103CEC00C250C30B1C09C26EC282C2807EEF1EF092
:103CFC00C2B283EF1EF085EF1EF07EEF1EF087EF51
:103D0C001EF0C350C4CF0EF00F6A0EC00FF00E6A37
:103D1C000E10106E0F50116E10C00CF011C00DF083
:103D2C0098EF1EF012000C500D100E100F10D8B49E
:103D3C00A2EF1EF0A4EF1EF0AEEF1EF0000E0C1A58
:103D4C00000E0D1A000E0E1A800E0F1AAEEF1EF09A
:103D5C000CC00CF00DC00DF00EC00EF00FC00FF02B
:103D6C00B8EF1EF01200BF0E0E6EFF0E0F6E0CC0E1
:103D7C0010F00DC011F00E5010260F5011221150E2
:103D8C000AE11A0E105CD8A0CEEF1EF0D1EF1EF097
:103D9C00010ED2EF1EF0000E0C6E0D6AD6EF1EF067
:103DAC001200D00E0E6EFF0E0F6E0CC010F00DC078
:103DBC0011F00E5010260F50112211500AE10A0E6C
:103DCC00105CD8A0ECEF1EF0EFEF1EF0010EF0EF40
:103DDC001EF0000E0C6E0D6AF4EF1EF0120001EED8
:103DEC0000F0640EEE6AE806FDE100EECAF01C0E6F
:103DFC00EE6AE806FDE100EE69F00A0EEE6AE806EE
:103E0C00FDE173907392000EF86E0001FAEF16F05C
:103E1C000C500E02F3CF10F0F4CF11F00C500F0237
:103E2C00F35011260D500E02F350112610C00CF059
:103E3C0011C00DF022EF1FF0120006009EA429EF16
:103E4C001FF02BEF1FF035EF1FF082749E94000EC5
:103E5C00B36E000EB26E35EF1FF035EF1FF073929C
:103E6C001100948C948EAC98B896AC84190EAF6EED
:103E7C00AB8E9E889E9AAC8AAB889D989F989D8AA3
:103E8C009F9A12000C6E4BEF1FF0ACA250EF1FF07C
:103E9C0052EF1FF04BEF1FF054EF1FF00CC0ADFFB3
:103EAC001200016E5AEF1FF0ACA25FEF1FF061EF32
:103EBC001FF05AEF1FF063EF1FF001C0ADFF1200AF
:103ECC0092680E0EC16EC08EC080C082C084000E7F
:103EDC00C46E000EC36E120093EC1FF097EC1FF033
:103EEC0037EC1FF08DEC1FF066EC1FF01200E8ECC5
:103EFC001CF0010E0D6E060E0E6E65EC1CF0120021
:103F0C00500E0C6E010E0D6E8CEF1FF0120094947F
:103F1C00090EBD6E9E949F841200D38CD38AD398C5
:0C3F2C001200D08EF28EF28C12001200F7
:020000040020DA
:08000000FFFFFFFFFFFFFFFF00
:020000040030CA
:0E000000FF881F00FF8381FF0FC00FE00F403D
:00000001FF
